:100000000C943B010C9432070C9459070C94800714
:100010000C94A7070C9463010C9463010C94CE0715
:100020000C9463010C9463010C946C0A0C943D08CD
:100030000C9463010C9463010C9463010C946301B0
:100040000C9463010C9463010C9463010C946301A0
:100050000C9463010C9463010C9463010C94F507F8
:100060000C9463010C9463010C9463010C94630180
:100070000C9463010C9463010C9463010C94630170
:100080000C9463010C9463010C9463010C94630160
:100090000C9463010C9463010C9463010C94630150
:1000A0000C9463010C9463010C9463010501090233
:1000B000A1018501050919012908150025019508E7
:1000C0007501810205010930093109381581257F43
:1000D000750895038106C0004449590000536572B4
:1000E00069616C4E6F3A20004D696E4170705665C3
:1000F000723A2000310050726F746F747970653AF3
:100100002000300053657269616C44656275673A1E
:10011000200031004F7363696C6C6F73636F70659F
:1001200044656275673A200046617374416E616C84
:100130006F67526561643A203100534275666665A7
:10014000723A20004C4275666665723A20003100B2
:100150004C6967687453656E736F723A2000323071
:100160003233303332310046573A20004F70656EDB
:100170004C444154204D6F64656C203100070605E6
:10018000040100080A0B0C0D0912010002EF020124
:1001900040704301000001010203010403090455FA
:1001A0006E6B6E6F776E004F70656E4C44415420DD
:1001B0004D6F64656C203100080B000202020000E4
:1001C00009040000010202000005240010010524BA
:1001D000010101042402060524060001070581032C
:1001E00010004009040100020A0000000705020295
:1001F00040000007058302400000000000020009E3
:100200000F0000030401000C0000000000000000CB
:100210000000000000000000000000000025002891
:10022000002B002E00310000000000240027002ACF
:10023000002D00300004040404040304050202023B
:10024000020403020202020606060606060404026F
:100250000202040404080201104080401020408083
:10026000408008020401804020100201108010200C
:1002700040402000A20D11241FBECFEFDAE0DEBF08
:10028000CDBF11E0A0E0B1E0EAE4FFE102C00590DB
:100290000D92AA34B107D9F721E0AAE4B1E001C078
:1002A0001D92AC3EB207E1F711E0CBE3D1E004C010
:1002B0002197FE010E94550ECA33D107C9F70E944B
:1002C000D90A0C948B0F0C9400000F931F932FB737
:1002D000F8948091DC019091DD01A091DE01B09154
:1002E000DF012FBF4091E4015091E5016091E601EB
:1002F0007091E7018C019D01041B150B260B370B38
:10030000083C11052105310528F0669B03C021E05A
:100310002093E3018093E4019093E501A093E6012B
:10032000B093E7011F910F910895669B03C081E090
:100330008093E301089580917A00806480937A002D
:1003400080917A0086FDFCCF8091780090917900B1
:1003500008950895DC01FB0188E4808389E48183AA
:1003600084E482831D968C911D978F708F5B8383AD
:100370001D968D919C9124E0969587952A95E1F79D
:100380008F708F5B848385E00895DC01FB011296FA
:100390008C91129790E0248135818217930749F45C
:1003A00081819081913A39F4982F9D7F81E091303D
:1003B00009F080E008959132E1F78B3029F48281D1
:1003C0001F968C9381E008958A3099F78281509628
:1003D0008C93F8CFCF93DF9300D000D0CDB7DEB7AA
:1003E0003FB7F8948091BE019091BF01A091C001E8
:1003F000B091C10126B5A89B05C02F3F19F0019609
:10040000A11DB11D3FBFBA2FA92F982F8827820F9A
:10041000911DA11DB11D9C01AD0162E0220F331F92
:10042000441F551F6A95D1F7CA01B9010F900F906B
:100430000F900F90DF91CF9108958F929F92AF927E
:10044000BF92CF92DF92EF92FF92CF93DF9300D0D3
:1004500000D0CDB7DEB74B015C010E94EA016B0111
:100460007C010E94EA0169837A838B839C83DC018F
:10047000CB018C199D09AE09BF09883E9340A105A7
:10048000B10578F321E0821A9108A108B10888EE3D
:10049000C80E83E0D81EE11CF11C81149104A10454
:1004A000B104F9F60F900F900F900F90DF91CF915C
:1004B000FF90EF90DF90CF90BF90AF909F908F9084
:1004C0000895CF93DF9390E0FC01EC5AFD4F249107
:1004D0008B5C9D4FFC0184918823D1F090E0880FC4
:1004E000991FFC01E95DFD4FA591B491FC01E75E08
:1004F000FD4FC591D4919FB761110DC0F8948C91B7
:10050000E22FE0958E238C9388818E2388839FBF72
:10051000DF91CF910895F8948C91822B8C93F7CF33
:10052000282F30E0F901E650FE4F9491F901EC5A82
:10053000FD4F84912B5C3D4FF9012491222309F159
:10054000992371F091509F3058F4E92FF0E0E35770
:10055000F04F0C94550E909180009F7790938000FF
:10056000E22FF0E0EE0FFF1FE75EFD4FA591B49183
:100570002FB7F8949C91611132C0809589238C9398
:100580002FBF0895909180009F7DE8CF90918000CB
:10059000977FE4CF94B59F7794BDE2CF94B59F7DCC
:1005A000FBCF909190009F7790939000D9CF90913E
:1005B00090009F7DF9CF90919000977FF5CF90911B
:1005C000C0009F779093C000CBCF9091C0009F7DDB
:1005D000F9CF9091C200977F9093C200C1CF892B31
:1005E000CECF60E084E00E94900260E084E00E9450
:1005F000610260E086E00E94900260E086E00E9476
:100600006102EE9889EA91E090931C0180931B01AE
:1006100060E087E00E94610260E08EE00E9461027B
:1006200060E08FE00C946102FC018485958597FD64
:100630000BC09FB7F89482E08093E9008091F200AC
:100640009FBF90E0019608959FB7F89482E0809351
:10065000E9008091F2009FBF90E0089583E08093CD
:10066000E9008091F200882319F08AE38093E80082
:100670000895CF93DF930F92CDB7DEB7DC01698386
:10068000ED91FC910280F381E02D41E050E0BE014C
:100690006F5F7F4F09950F90DF91CF910895809103
:1006A000B60181110DC082E08093B20184E0809395
:1006B000B3011092B5011092B40181E08093B601AC
:1006C00082EB91E00895615028F4289884E68093A5
:1006D000B1010895FC018091F1008193CF01F3CF26
:1006E0009FB7F89487708093E9008091E80080724A
:1006F000882321F02091F20080E4821B9FBF08959F
:1007000083E00E94700390E008958F929F92AF92D1
:10071000BF92CF92DF92EF92FF920F931F93CF93EE
:10072000DF93F82EEB01D42EE52E8091B0018111DC
:100730000FC08FEF9FEFDF91CF911F910F91FF902F
:10074000EF90DF90CF90BF90AF909F908F900895E3
:100750008091AF0180FF05C08091E00082608093AE
:10076000E0000D2D1E2DC12C8AEFB82E8F2D877025
:10077000982E4F2D4072842E9AE3A92E09C0BA9468
:10078000BB20B9F261E070E080E090E00E941D02C1
:100790000115110529F5CC2009F45DC08F2D0E94AB
:1007A0007003882361F3802F9FB7F8949092E9003B
:1007B0002091E80025FD02C09FBFEACF282F30E03E
:1007C000021B130B8820D1F08150A8F4CC2079F1C2
:1007D000A092E8009FBF0115110509F43CC0C12C8F
:1007E0008F2D0E947003882351F2282F30E00217CA
:1007F0001307D4F6D8CF1092F100E6CF4C2F5D2F1F
:10080000F7FE12C0EC2FF52F8C0F8E1303C0C20F12
:10081000D31FDCCF44914093F1003196F6CFFA011B
:1008200041914093F100AF018150C8F7F0CF809122
:10083000E80085FD0AC0A092E800CC24C39401150D
:10084000110509F4B9CFC12CB7CF0115110551F429
:10085000F6FC0AC09FBF5D9884E68093AE018D2DA3
:100860009E2D69CF9FBFBBCF8AE38093E800F2CF74
:10087000CF93DF93EC0180911201882331F083E064
:100880000E9485031816190634F081E090E09B83DE
:100890008A8380E090E0DF91CF9108954091AC0190
:1008A0005091AD012091AA013091AB01421753073D
:1008B000BCF49091E80095709923D9F39091E800E9
:1008C00092FD19C08093F1008091AC019091AD012F
:1008D00001968F739927892B19F48EEF8093E80086
:1008E0008091AC019091AD0101969093AD01809300
:1008F000AC0181E0089580E00895CF92DF92FF92ED
:100900000F931F93CF93DF93F82E8A01EB016B01B6
:10091000C40ED51ECC15DD0549F4C801DF91CF9179
:100920001F910F91FF90DF90CF900895F7FE0AC0BE
:10093000FE0184910E944E0421968111EBCF0FEFAE
:100940001FEFEBCF8881F6CFCF93DF93CDB7DEB724
:1009500069970FB6F894DEBF0FBECDBFFC01DB0177
:100960008C918F5F8C939E012C5F3F4F8BE0D90160
:100970001D928A95E9F729E0298384E08A8381E042
:100980008D8393E09E832A8721E22B878C878D8736
:100990008F8722E2288B27E02B8B25E02C8B9E8BE8
:1009A00020E430E0388F2F8B898F82818B8385857F
:1009B00096859A8B898B838180688D8B49E150E085
:1009C000BE016F5F7F4F80E00E947D0469960FB685
:1009D000F894DEBF0FBECDBFDF91CF910895EF92A7
:1009E000FF920F931F93CF93DF93EC01FB01808164
:1009F000813861F58381823249F58A8190E02481D2
:100A000035812817390711F50B851C85E12CF12C50
:100A10000115110551F481E08F87C701DF91CF9156
:100A20001F910F91FF90EF900895F8014481558137
:100A30006281738180E80E947D048F3F980771F383
:100A4000E80EF91EF80100811181E2CF80E090E00C
:100A5000E5CFEF92FF920F931F93CF93DF93F82E82
:100A6000192FE62E042F81E0860F880F0E944E0476
:100A700083E00E944E04CF2DD12FEC0EFD2EF11CF1
:100A8000CE15DF0511F481E00EC007FF13C0FE0193
:100A900084910E944E04182F80E00E944E0481230E
:100AA00021968111EDCFDF91CF911F910F91FF9092
:100AB000EF9008958881EDCF0F931F93CF93DF932D
:100AC0000F92CDB7DEB782E0898342E450E068EB55
:100AD00071E080E80E947D040E944F03DC011296C1
:100AE0000D911C910115110539F489810F90DF9149
:100AF000CF911F910F910895D801ED91FC91028043
:100B0000F381E02DBE016F5F7F4FC801099597FD0E
:100B1000ECCFF80100851185E5CF9091B0019111DE
:100B200003C08FEF9FEF08959FB7F89422E02093C2
:100B3000E9002091F200422F50E0211102C0452B24
:100B400031F0289884E68093B1018091F100211161
:100B500002C09FBFE6CF2091F200211103C02BE617
:100B60002093E8009FBF90E00895CF93DF93EC01BE
:100B70008C859D8597FF04C00E948D059D878C877D
:100B80008C859D85DF91CF910895FC0184859585A5
:100B900097FD0C948D052FEF3FEF3587248708953F
:100BA000CF93DF93EC01FE016491662339F088E571
:100BB00091E00E9439032196892BA9F7DF91CF910B
:100BC0000895CF93DF93FC0181819091C701482F55
:100BD000490F5527551F48305105D4F4A281B381E0
:100BE0001097C9F423EC31E03383228320812093D2
:100BF000C5018093C6018091C801820F8083209136
:100C0000C901A22FB091CA018A2F821B891778F0DF
:100C1000DF91CF910895ED0118960D90BC91A02D14
:100C20001097C9F723EC31E039872887DFCF81811E
:100C30003D91C82FD0E0C050DF4F38838F5F818354
:100C4000E3CFDF92EF92FF920F931F93CF93DF9347
:100C50000F92CDB7DEB7F62E072FD42EE52E80915A
:100C6000D40181112AC011E01093C7011093C8016B
:100C70008DEC91E09093CA018093C9011092CC0150
:100C80001092CB018FE391E09093C4018093C30154
:100C90001092CF011092CE011092D1011092D0018A
:100CA0001093D2011093D30181EC8093CD010E9467
:100CB0004F030E94E1051093D40181E0898341E054
:100CC00050E0BE016F5F7F4F8091C6010E94850397
:100CD00097FD09C08091C6014D2D5E2D6F2D702F9F
:100CE00080640E9485030F90DF91CF911F910F9137
:100CF000FF90EF90DF900895CF93DF9300D000D066
:100D0000CDB7DEB79091E201981779F08093E201B8
:100D100089831A821B821C8244E050E0BE016F5F0F
:100D20007F4F80EE91E00E9421060F900F900F9070
:100D30000F90DF91CF910895CF92DF92EF92FF92C3
:100D40008FB7F894C090DC01D090DD01E090DE0117
:100D5000F090DF018FBF8091E4019091E501A091B7
:100D6000E601B091E701B701A601481B590B6A0BD8
:100D70007B0B8091E201483C510561057105A8F0AB
:100D8000669B13C091E09093E30181600E947C0612
:100D9000C092E401D092E501E092E601F092E70111
:100DA000FF90EF90DF90CF9008958E7FEFCF8091EE
:100DB000E201669B06C091E09093E30181600C9490
:100DC0007C068E7FFCCFBC01009761F0FC01019096
:100DD0000020E9F73197AF01481B590B88E591E0F6
:100DE0000C94380408950E94D00587E491E00C9497
:100DF000E3060F931F93CF93DF93CDB7DEB7A5978D
:100E00000FB6F894DEBF0FBECDBF8C0119A2092E1C
:100E1000000CAA0BBB0B8AA39BA3ACA3BDA3BC0174
:100E2000CD012AE030E040E050E00E94330E605DEA
:100E300068A3CE0180960A30110524F0205D2F8F23
:100E4000CE014F960E94E30687E491E0A5960FB687
:100E5000F894DEBF0FBECDBFDF91CF911F910F91F0
:100E60000C94E3061F920F920FB60F9211242F934A
:100E70003F934F935F936F937F938F939F93AF9322
:100E8000BF93EF93FF93E0911301F0911401099543
:100E9000FF91EF91BF91AF919F918F917F916F9152
:100EA0005F914F913F912F910F900FBE0F901F9028
:100EB00018951F920F920FB60F9211242F933F9304
:100EC0004F935F936F937F938F939F93AF93BF9352
:100ED000EF93FF93E0911501F09116010995FF91B1
:100EE000EF91BF91AF919F918F917F916F915F91A2
:100EF0004F913F912F910F900FBE0F901F9018951B
:100F00001F920F920FB60F9211242F933F934F937E
:100F10005F936F937F938F939F93AF93BF93EF9361
:100F2000FF93E0911701F09118010995FF91EF915E
:100F3000BF91AF919F918F917F916F915F914F91F1
:100F40003F912F910F900FBE0F901F9018951F92F9
:100F50000F920FB60F9211242F933F934F935F93ED
:100F60006F937F938F939F93AF93BF93EF93FF9371
:100F7000E0911901F0911A010995FF91EF91BF914C
:100F8000AF919F918F917F916F915F914F913F9121
:100F90002F910F900FBE0F901F9018951F920F92D8
:100FA0000FB60F9211242F933F934F935F936F933C
:100FB0007F938F939F93AF93BF93EF93FF93E091B2
:100FC0001B01F0911C010995FF91EF91BF91AF9129
:100FD0009F918F917F916F915F914F913F912F9151
:100FE0000F900FBE0F901F9018951F921FB61F9263
:100FF00011242F933F938F939F93AF93BF9380912F
:10100000DC019091DD01A091DE01B091DF01309112
:10101000C20123E0230F2D3750F50196A11DB11D0C
:101020002093C2018093DC019093DD01A093DE0147
:10103000B093DF018091BE019091BF01A091C001EA
:10104000B091C1010196A11DB11D8093BE01909385
:10105000BF01A093C001B093C101BF91AF919F9117
:101060008F913F912F911F901FBE1F90189526E8DA
:10107000230F0296A11DB11DD3CF1F920F920FB661
:101080000F921124CF92DF92EF92FF920F931F9352
:101090002F933F934F935F936F937F938F939F9380
:1010A000AF93BF93EF93FF93CF93DF93CDB7DEB7AB
:1010B0006C97DEBFCDBF1092E9008091E80083FFFE
:1010C00029C08E010B5E1F4F68E0C8010E946303B8
:1010D00082EF8093E8008D89E02ED12E87FF39C002
:1010E0009091E80090FFFCCF982F9076911130C13D
:1010F000EE892F89388D9F89F88CE11131C08038B5
:1011000061F58091A9018093F1001092F1008EEFBA
:101110008093E8006C960FB6F894DEBF0FBECDBF8B
:10112000DF91CF91FF91EF91BF91AF919F918F91FF
:101130007F916F915F914F913F912F911F910F91EF
:10114000FF90EF90DF90CF900F900FBE0F901F9009
:1011500018959EEF9093E800C7CF1092F100D5CF7D
:10116000E150E930A0F6F0E0E456F04F0C94550E53
:101170008111CDCF2130310551F68091A9018D7FAC
:101180008093A901C4CF8111C2CF2130310509F06C
:10119000BECF8091A9018260F3CF8091E80080FFEB
:1011A000FCCF90689093E300B2CF0B8D1C8D22E0B2
:1011B0001092E9001092AD011092AC01F2122EC013
:1011C0001092AB011092AA010E945C051F8299E067
:1011D0009983FA8291E09E8390EA98879AEF9987A3
:1011E0002091AC013091AD01275F3F4F3C832B83B1
:1011F0008D831092E9001092AD011092AC01109312
:10120000AB010093AA0149E050E0BE016F5F7F4F40
:1012100080E00E947D040E945C0579CF1093AB01B1
:101220000093AA010E944F03DC0112960D911C91BC
:101230000115110531F4F1E0FF1214C069E871E005
:101240005AC0D801ED91FC910480F581E02D6E2DFE
:101250007D2DC8010995009709F039C1F801008575
:101260001185E6CFF3E0FF120EC08F89882309F4C1
:1012700040C0823061F440E860E187EA91E00E947A
:101280002905811144CF81E28093EB0043CF813067
:1012900029F440E867E08FE991E0F1CF833099F7D6
:1012A0000E944F03DC011296ED90FC908E010F5FBF
:1012B0001F4F6801E114F10469F4D8011C92F60192
:1012C00001900020E9F73197BF016C197D0940E0DA
:1012D000C601D5CFD701ED91FC910680F781E02DB5
:1012E000B801C7010995080F111DF701E084F184C9
:1012F000E1CF6BE971E0FB01449150E080E80E948E
:101300007D0405CF81E08093F10001CF83708111CE
:10131000BACFE1E0F1E081E021E036E39191992359
:1013200071F08093E9002093EB00DF0111979C910D
:101330009093EC003093ED008F5F873079F78EE764
:101340008093EA001092EA008F898093B001DFCE8B
:101350008B8D9C8D1092E9001092AD011092AC0122
:101360009093AB018093AA01898D811196C08E89DB
:101370009D89913A49F4813209F085CF47E050E0E8
:101380006BE071E080E0BBCF913209F07CCF83321B
:1013900069F48F89988DA0E0B0E080930701909365
:1013A0000801A0930901B0930A01B1CE803269F41B
:1013B0008091E80082FFFCCF67E08BE091E00E9423
:1013C00063038BEF8093E800A2CE823209F09FCEB8
:1013D0008F8980931201EEEFFFE7859194918B3F07
:1013E0009C4D51F1E0E0F8E080910B0190910C01EF
:1013F000A0910D01B0910E01803B9440A105B10573
:10140000F1F48091120180FD1AC0EE3F8AE0F807E6
:1014100091F587E797E791838083809160008093BF
:10142000A80188E19BE00FB6F894A895809360002E
:101430000FBE909360006BCEEEEFFAE0D5CF8081C7
:1014400091818737974709F062CEA8958091600017
:101450008861809360008091A80180936000EE3FD6
:10146000FA40B1F08091FE0A9091FF0A9093010832
:10147000809300084CCE8091000890910108873736
:10148000980709F4C6CF9093FF0A8093FE0AC1CF54
:101490001092FF0A1092FE0A3ACE0E944F03DC011E
:1014A00012960D911C910115110509F4ECCED8018D
:1014B000ED91FC910190F081E02D6E2D7D2DC80104
:1014C0000995811124CEF80100851185ECCF1816FD
:1014D00019060CF41CCED7CE1F921FB61F921124F2
:1014E0008F939F938091E1009091E100937F90937F
:1014F000E10083FF0FC01092E90091E09093EB00B0
:101500001092EC0092E39093ED001092B00198E0FD
:101510009093F00082FF22C093E09093E9009091B5
:10152000F200992319F09AE39093E8009091AE01AC
:10153000992341F09091AE0191509093AE01911199
:1015400001C05D9A9091B101992341F09091B10150
:1015500091509093B101911101C0289A84FF17C056
:101560008091E2008E7E81608093E2008091E100B4
:101570008F7E8093E1008091AF018E7E80618093A9
:10158000AF019F918F911F901FBE1F90189580FFF4
:10159000F8CF8091E2008E7E80618093E20080919E
:1015A000E1008E7E8093E1008091AF018E7E8160AC
:1015B000E6CF00D000D000D0CDB7DEB7789484B5A8
:1015C000826084BD84B5816084BD85B5826085BD3F
:1015D00085B5816085BD80916E00816080936E00CD
:1015E00010928100809181008260809381008091BF
:1015F0008100816080938100809180008160809370
:101600008000809191008260809391008091910090
:101610008160809391008091900081608093900020
:101620008091C10084608093C1008091C10082607C
:101630008093C1008091C10081608093C10080913E
:10164000C30081608093C3008091C000826080935A
:10165000C0008091C20081608093C20080917A00B6
:10166000846080937A0080917A00826080937A000F
:1016700080917A00816080937A0080917A008068FE
:1016800080937A001092B0011092A9011092AF01DC
:101690008091D70081608093D70080EA8093D80042
:1016A00089B5806189BD89B5826089BD09B400FEB4
:1016B000FDCF61E070E080E090E00E941D0280912B
:1016C000D8008F7C80618093D8008091E000807F7B
:1016D0008093E0008091E1008E7E8093E1008DE0B8
:1016E0008093E200559A209A8FEF9FEF90936501C7
:1016F000809364011092E20119821A821B821C827B
:1017000044E050E08E010F5F1F4FB80180EE91E082
:101710000E9421060E94F10261E081E00E946102C4
:1017200060E081E00E9490020D831E8380E0A82E7D
:1017300080E0B82E97EC292E2DE7622E21E0722E44
:1017400030E4532E43E0342E44244A9488E591E05B
:101750000E941403892B09F420C188E591E00E94BE
:10176000C505182FE82E88E591E00E94C505F82EE2
:10177000143409F066C08CE691E00E94F30687E617
:1017800091E00E94D0058EE591E00E94F30680E58D
:1017900091E00E94D0058EE491E00E94F30684E47B
:1017A00091E00E94D00580E290E00E94F9068AE371
:1017B00091E00E94D00585E190E00E94F90688E260
:1017C00091E00E94F30684E191E00E94D00582E15D
:1017D00091E00E94F30684E091E00E94D00582E04F
:1017E00091E00E94F30686EF90E00E94D00584EF1E
:1017F00090E00E94F30688EE90E00E94D00582E01F
:1018000090E00E94F9068DED90E00E94D00580E303
:1018100093E00E945B0E873309F0D8C001E313E028
:10182000C8010E945B0E682F8FEF860F8E3F08F471
:10183000BBC087ED90E00E94F3068CED90E00E9423
:10184000F306ECE4EE12A2C01F2D1870111140C077
:101850000F2D007161E0F0FEBCC086E00E946102C5
:10186000F8948091C20088608093C2008091C20089
:101870008B7F8093C2005092D2008091C100807F04
:101880008093C1008091C1008F608093C1008091DE
:10189000C3008C7F8093C3003092BF004092D10080
:1018A0001092BF001092BF001092BE00789487ED96
:1018B00096E0002311F085E991E090931C0180935C
:1018C0001B0180916A008F7C806180936A00EE9A90
:1018D00080917A008078F5FE8BC0856080937A00D5
:1018E00080917B008F75806880937B0020927C00C4
:1018F000F2FE80C060E08FE00E946102F6FE83C0CD
:1019000060E08EE00E94610224E630E0F301849101
:1019100040917B00982F990F990F90724F7D942BD7
:1019200090937B008770806480937C0080917A0024
:10193000806480937A0080917A0086FDFCCF80914C
:101940007800809179002150310921153105F1F697
:1019500061E08AE0F1FE98C0112309F46CC00E9496
:10196000610260E08AE00E94900288E591E00E94B6
:101970001403892B09F450C060E08AE00E949002B1
:1019800060E08AE00E9461020E94F102A114B104A9
:1019900009F4DCCE0E940000D9CE6AE070E080E05D
:1019A00090E00E941D02D2CE6D3009F442CF6A3021
:1019B00009F43FCF88E591E00E9439030F5F1F4F84
:1019C000013483E0180709F02BCF33CF88ED90E086
:1019D00032CF84E00E94610261E084E00E949002C4
:1019E0008CE996E0002309F468CF85E691E065CFA5
:1019F000876074CF61E08FE00E94610260E08FE059
:101A00000E9490027BCF61E08EE00E94610260E064
:101A10008EE00E94900278CF53B80E949B019A8377
:101A2000898342E050E06D817E8188E591E00E94EB
:101A3000380453B89ACF0E94610260E08AE00E94A5
:101A4000900283E090E00E94630E8C0188E591E0B3
:101A50000E941403892B21F0C8010E94F90E8CCF3B
:101A600053B80E949B01F801918380838091E30128
:101A700082831092E30143E050E0B80188E591E0F1
:101A80000E94380453B8E2CF112351F10E94610241
:101A900060E08AE00E94900280E490E00E94630E81
:101AA0008C0153B86C01F0E4CF0ED11C780188E5AD
:101AB00091E00E941403892B79F60E949B01F701A3
:101AC000819391937F01CE16DF0689F753B840E4E6
:101AD00050E0B80188E591E00E94380453B8E6CFA1
:101AE0000E94610260E08AE00E9490028FE390E031
:101AF0000E94630E8C0153B878016801FAE2CF0EA0
:101B0000D11C460188E591E00E941403892B09F05D
:101B1000A3CF0E949B01F701819391937F01809154
:101B2000E301F60181936F011092E301E814F904D7
:101B300049F753B84FE350E0B80188E591E00E94BF
:101B40003804D9CFCF9310925B0110925A0188EEDE
:101B500093E0A0E0B0E080935C0190935D01A093DE
:101B60005E01B0935F0187E291E090935901809309
:101B700058018FEF9FEF909365018093640110925D
:101B8000E20189E391E09093E1018093E00180918B
:101B90005001811113C010924B0110924A018CEA3E
:101BA00090E090934D0180934C018BE290E09093F4
:101BB0004F0180934E0181E0809350018091D401C8
:101BC00081112AC0C1E0C093C701C093C8018DEC48
:101BD00091E09093CA018093C9011092CC011092B8
:101BE000CB018FE391E09093C4018093C3011092E5
:101BF000CF011092CE011092D1011092D001C0936A
:101C0000D201C093D30181EC8093CD010E944F0398
:101C10000E94E105C093D401E091CE01F091CF0183
:101C20003097B1F48AE491E09093CF018093CE0194
:101C30008091D0019091D10120914E0130914F01BE
:101C4000820F931F9093D1018093D001CF9108957B
:101C5000DF010190F081E02D3097D1F78AE491E027
:101C60008D939C93E5CFA1E21A2EAA1BBB1BFD010D
:101C70000DC0AA1FBB1FEE1FFF1FA217B307E4076B
:101C8000F50720F0A21BB30BE40BF50B661F771FC3
:101C9000881F991F1A9469F76095709580959095A3
:101CA0009B01AC01BD01CF010895EE0FFF1F059010
:101CB000F491E02D0994F999FECF92BD81BDF89A77
:101CC000992780B508950F931F93CF93DF939C01BD
:101CD000029710F422E030E0E091E801F091E90190
:101CE00090E080E0B0E0A0E0309791F4009709F434
:101CF00045C0821B930B84309105B8F58A819B8186
:101D00006115710569F1FB0193838283FE0111C0A6
:101D1000408151810281138142175307F0F042172D
:101D2000530799F4109761F012960C93129713963B
:101D30001C933296CF01DF91CF911F910F9108959F
:101D40000093E8011093E901F4CF009719F04817C8
:101D5000590718F4CA01BD01EF01DF01F801C4CF32
:101D60009093E9018093E801D1CFFE01E80FF91FBC
:101D700021933193029799838883DCCF8091EA0184
:101D80009091EB01892B41F480911F0190912001EA
:101D90009093EB018093EA0180911D0190911E01C7
:101DA000009741F48DB79EB74091210150912201D7
:101DB000841B950B4091EA015091EB01481759079C
:101DC00008F0B8CF841B950B8217930708F4B2CFA5
:101DD000B9016E5F7F4F8617970708F4ABCF640F8A
:101DE000751F7093EB016093EA01FA01219331931F
:101DF000A1CFCF93DF939C010097E9F0FC013297CC
:101E000013821282C091E801D091E901DE0190E0D5
:101E100080E02097A1F480819181280F391F809163
:101E2000EA019091EB018217930709F067C0F093E4
:101E3000EB01E093EA01DF91CF910895DA01AE174B
:101E4000BF0708F041C012964D915C911397CD01E8
:101E50004115510599F7DC011396FC93EE93129707
:101E60004D915D91A40FB51FEA17FB0781F4208106
:101E700031812E5F3F4F240F351FDC0111963C93BB
:101E80002E932281338113963C932E931297B0E0C8
:101E9000A0E08A819B810097B1F5FE01819191912B
:101EA000E80FF91F8091EA019091EB018E179F07CF
:101EB00011F6109759F51092E9011092E801D093AC
:101EC000EB01C093EA01B7CFB383A2834081518174
:101ED000240F351FA217B30771F44E5F5F4F2D918A
:101EE0003C911197240F351F3183208312962D9139
:101EF0003C9133832283009709F0ADCFF093E90141
:101F0000E093E80198CFDE01EC01C3CF13961C9259
:101F10001E921297D4CFF894FFCFCA02CE02AB0222
:101F2000C202C602B002B002B002D102D702DB0286
:101F3000DF02E502B002E902B8088708C308870893
:0A1F4000CD08D5084309820986097F
:101F4A0000C18081000000FFFFFFFF00E1000000E8
:101F5A00000000A901A901A901A901A9010000EC39
:101F6A00012000000000003903380480032E031406
:101F7A0003C505B50500000000210600000000C5E4
:0A1F8A0001A404EF04AA010D0A00EF
:00000001FF
