:100000000C9432010C9435070C945C070C94830714
:100010000C94AA070C945A010C945A010C94D10721
:100020000C945A010C945A010C94700A0C944008D8
:100030000C945A010C945A010C945A010C945A01D4
:100040000C945A010C945A010C945A010C945A01C4
:100050000C945A010C945A010C945A010C94F80710
:100060000C945A010C945A010C945A010C945A01A4
:100070000C945A010C945A010C945A010C945A0194
:100080000C945A010C945A010C945A010C945A0184
:100090000C945A010C945A010C945A010C945A0174
:1000A0000C945A010C945A010C945A01050109024E
:1000B000A1018501050919012908150025019508E7
:1000C0007501810205010930093109381581257F43
:1000D000750895038106C0070605040100080A0B90
:1000E0000C0D0900444959000053657269616C4E5A
:1000F0006F3A20004D696E4170705665723A20006B
:10010000300050726F746F747970653A200030005F
:1001100053657269616C44656275673A200031000D
:100120004F7363696C6C6F73636F70654465627560
:10013000673A2000534275666665723A20004C4269
:1001400075666665723A200031004C6967687453C1
:10015000656E736F723A2000323032313035323191
:100160000046573A20004F70656E4C444154204D74
:100170006F64656C2031000403090412010002EF72
:1001800002014070430100000101020301556E6B42
:100190006E6F776E004F70656E4C444154204D6F0A
:1001A00064656C203100080B0002020200000904A3
:1001B00000000102020000052400100105240101D5
:1001C000010424020605240600010705810310002E
:1001D0004009040100020A00000007050202400075
:1001E00000070583024000000000000200090F0024
:1001F00000030401000C00000000000000000000EB
:100200000000000000000000000000250028002B76
:10021000002E00310000000000240027002A002DDD
:100220000030000404040404030405020202020472
:100230000302020202060606060606040402020281
:1002400004040408020110408040102040804080D7
:10025000080204018040201002011080102040405C
:1002600020007A0D11241FBECFEFDAE0DEBFCDBF34
:1002700011E0A0E0B1E0EAEFFEE102C005900D92CE
:10028000AA34B107D9F721E0AAE4B1E001C01D9278
:10029000AC3EB207E1F711E0C2E3D1E004C0219720
:1002A000FE010E942D0EC133D107C9F70E94DD0A5D
:1002B0000C94630F0C9400000F931F932FB7F894C6
:1002C0008091DC019091DD01A091DE01B091DF0110
:1002D0002FBF4091E4015091E5016091E6017091DA
:1002E000E7018C019D01041B150B260B370BB9018F
:1002F000A801483C51056105710518F021E02093E3
:10030000E3018093E4019093E501A093E601B093AB
:10031000E7011F910F91089581E08093E301089513
:100320000895DC01FB0188E4808389E4818384E40F
:1003300082831D968C911D978F708F5B83831D9692
:100340008D919C9124E0969587952A95E1F78F7081
:100350008F5B848385E00895DC01FB0112962C916C
:100360001297848195812817190649F4818190811B
:10037000913A39F4982F9D7F81E0913009F080E027
:1003800008959132E1F78B3029F482811F968C9386
:1003900081E008958A3099F7828150968C93F8CF46
:1003A000CF93DF9300D000D0CDB7DEB73FB7F8943E
:1003B0008091BE019091BF01A091C001B091C10197
:1003C00026B5A89B05C02F3F19F00196A11DB11DB0
:1003D0003FBFBA2FA92F982F8827820F911DA11DEB
:1003E000B11D9C01AD0162E0220F331F441F551F58
:1003F0006A95D1F7CA01B9010F900F900F900F9035
:10040000DF91CF9108958F929F92AF92BF92CF923A
:10041000DF92EF92FF92CF93DF9300D000D0CDB761
:10042000DEB74B015C010E94D0016B017C010E9490
:10043000D001DC01CB018C199D09AE09BF09883EB2
:100440009340A105B10598F321E0821A9108A10813
:10045000B10888EEC80E83E0D81EE11CF11C81149F
:100460009104A104B10419F70F900F900F900F9011
:10047000DF91CF91FF90EF90DF90CF90BF90AF9042
:100480009F908F900895CF93DF9390E0FC01EE5BF7
:10049000FD4F24918D5D9D4FFC0184918823D1F007
:1004A00090E0880F991FFC01EB5EFD4FA591B49180
:1004B000FC01E95FFD4FC591D4919FB761110DC05B
:1004C000F8948C91E22FE0958E238C9388818E2373
:1004D00088839FBFDF91CF910895F8948C91822BF0
:1004E0008C93F7CF282F30E0F901E851FE4F94911B
:1004F000F901EE5BFD4F84912D5D3D4FF901249193
:10050000222309F1992371F091509F3058F4E92F7B
:10051000F0E0EB59F04F0C942D0E909180009F77F6
:1005200090938000E22FF0E0EE0FFF1FE95FFD4F98
:10053000A591B4912FB7F8949C91611132C0809528
:1005400089238C932FBF0895909180009F7DE8CFE1
:1005500090918000977FE4CF94B59F7794BDE2CFD0
:1005600094B59F7DFBCF909190009F7790939000E2
:10057000D9CF909190009F7DF9CF90919000977F77
:10058000F5CF9091C0009F779093C000CBCF909112
:10059000C0009F7DF9CF9091C200977F9093C200D9
:1005A000C1CF892BCECF60E084E00E94720260E070
:1005B00084E00E94430260E086E00E94720260E0F4
:1005C00086E00E944302EE9880E991E090931C013E
:1005D00080931B0160E087E00E94430260E08EE0B0
:1005E0000E94430260E08FE00C944302FC0184858A
:1005F000958597FD0BC09FB7F89482E08093E90042
:100600008091F2009FBF90E0019608959FB7F89403
:1006100082E08093E9008091F2009FBF90E008950E
:1006200083E08093E9008091F200882319F08AE347
:100630008093E8000895CF93DF930F92CDB7DEB794
:10064000DC016983ED91FC910280F381E02D41E0B2
:1006500050E0BE016F5F7F4F09950F90DF91CF9102
:1006600008958091B60181110DC082E08093B2019E
:1006700084E08093B3011092B5011092B40181E03F
:100680008093B60182EB91E00895615028F4289898
:1006900084E68093B1010895FC018091F10081937B
:1006A000CF01F3CF2FB7F89487708093E900909132
:1006B000E800892F807295FF04C09091F20080E4D9
:1006C000891B2FBF089583E00E94520390E0089594
:1006D0007F928F929F92AF92BF92CF92DF92EF92D2
:1006E000FF920F931F93CF93DF93D82EEB017A01E4
:1006F0008091B001811110C08FEF9FEFDF91CF91FA
:100700001F910F91FF90EF90DF90CF90BF90AF902F
:100710009F908F907F9008958091AF0180FF05C0DA
:100720008091E00082608093E0008701C12C8AEF15
:10073000B82E8D2D8770982E4D2D4072842E8D2DC4
:100740008074782E9AE3A92E0EC08D2D0E9452033C
:10075000811114C0BA94BB2079F261E070E080E0AE
:1007600090E00E9403020115110579F7C110EDCF49
:100770005D9884E68093AE01C701C0CF8017110653
:1007800011F00CF0802F9FB7F8949092E90020911F
:10079000E80025FD02C09FBFE6CF282F30E0021BF6
:1007A000130B882059F0815030F4CC2001F1A09235
:1007B000E800C12CF0CF1092F100F5CF4C2F5D2F47
:1007C000D7FE12C0EC2FF52F8C0F8E1303C0C20F73
:1007D000D31FEBCF44914093F1003196F6CFFA014D
:1007E00041914093F100AF018150C8F7F0CF809163
:1007F000E80085FD08C0A092E800CC24C394011550
:10080000110549F2D6CF0115110509F0C4CF7720A3
:1008100009F4C1CFA092E800BECFCF93DF93EC01E3
:1008200080911201882331F083E00E94680318163A
:10083000190634F081E090E09B838A8380E090E0A9
:10084000DF91CF9108954091AC015091AD0120917D
:10085000AA013091AB0142175307B4F49091E8001C
:100860009570E1F39091E80092FD19C08093F1003A
:100870008091AC019091AD0101968F739927892BDE
:1008800019F48EEF8093E8008091AC019091AD0156
:1008900001969093AD018093AC0181E0089580E0D2
:1008A0000895CF92DF92FF920F931F93CF93DF9320
:1008B000F82E8A01EB016B01C40ED51ECC15DD05A7
:1008C00049F4C801DF91CF911F910F91FF90DF9004
:1008D000CF900895F7FE0AC0FE0184910E94230480
:1008E00021968111EBCF0FEF1FEFEBCF8881F6CF71
:1008F000CF93DF93CDB7DEB769970FB6F894DEBF1D
:100900000FBECDBFFC01DB018C918F5F8C939E01EC
:100910002C5F3F4F8BE0D9011D928A95E9F729E0C2
:10092000298384E08A8381E08D8393E09E832A87F4
:1009300021E22B878C878D878F8722E2288B27E007
:100940002B8B25E02C8B9E8B20E430E0388F2F8B77
:10095000898F82818B83858596859A8B898B83810C
:1009600080688D8B49E150E0BE016F5F7F4F80E072
:100970000E94510469960FB6F894DEBF0FBECDBF3A
:10098000DF91CF910895EF92FF920F931F93CF9332
:10099000DF93EC01FB018081813859F5838182323C
:1009A00041F52A81848195812817190611F50B8557
:1009B0001C85F12CE12C0115110551F481E08F8784
:1009C000C701DF91CF911F910F91FF90EF90089594
:1009D000F801448155816281738180E80E9451044D
:1009E0008F3F980771F3E80EF91EF801008111811D
:1009F000E2CF90E080E0E5CFEF92FF920F931F935C
:100A0000CF93DF937C01162F042F81E0860F880F90
:100A10000E94230483E00E942304E701E10EF11CFD
:100A2000CE15DF0511F481E00EC007FF13C0FE01F3
:100A300084910E942304182F80E00E9423048123C4
:100A400021968111EDCFDF91CF911F910F91FF90F2
:100A5000EF9008958881EDCF0F931F93CF93DF938D
:100A60000F92CDB7DEB782E0898342E450E066EAB8
:100A700071E080E80E9451040E943103DC0112966B
:100A80000D911C910115110539F489810F90DF91A9
:100A9000CF911F910F910895D801ED91FC910280A3
:100AA000F381E02DBE016F5F7F4FC801099597FD6F
:100AB000ECCFF80100851185E5CF9091B00191113F
:100AC00003C08FEF9FEF08954FB7F89492E0909393
:100AD000E9009091F200292F30E0992311F021E0F4
:100AE00030E0232B31F0289884E68093B101809187
:100AF000F100992339F02091F200211103C02BE677
:100B00002093E8004FBF9923E1F290E00895CF933E
:100B1000DF93EC018C859D8597FF04C00E945D05E5
:100B20009D878C878C859D85DF91CF910895FC01F1
:100B30008485958597FD0C945D052FEF3FEF3587F4
:100B400024870895E7EDF0E0E49190917B008E2FEB
:100B5000880F880F80729F7D892B80937B00E770C0
:100B6000E064E0937C0080917A00806480937A0056
:100B700080917A0086FDFCCF809178009091790079
:100B80000895CF93DF93EC01FE016491662339F061
:100B900088E591E00E941B032196892BA9F7DF913C
:100BA000CF910895CF93DF93FC0181819091C7018C
:100BB000482F490F5527551F48305105D4F4A281BD
:100BC000B3811097C9F423EC31E033832283208171
:100BD0002093C5018093C6018091C801820F808354
:100BE0002091C901A22FB091CA018A2F821B8917B7
:100BF00078F0DF91CF910895ED0118960D90BC919A
:100C0000A02D1097C9F723EC31E039872887DFCF73
:100C100081813D91C82FD0E0C050DF4F38838F5F76
:100C20008183E3CFDF92EF92FF920F931F93CF93D5
:100C3000DF930F92CDB7DEB7F62E072FD42EE52E19
:100C40008091D40181112AC011E01093C701109343
:100C5000C8018DEC91E09093CA018093C901109274
:100C6000CC011092CB018FE391E09093C40180936B
:100C7000C3011092CF011092CE011092D1011092B7
:100C8000D0011093D2011093D30181EC8093CD0158
:100C90000E9431030E94D2051093D40181E0898320
:100CA00041E050E0BE016F5F7F4F8091C6010E941E
:100CB000680397FD09C08091C6014D2D5E2D6F2DF3
:100CC000702F80640E9468030F90DF91CF911F9175
:100CD0000F91FF90EF90DF900895CF93DF9300D0B6
:100CE00000D0CDB7DEB78091E20189831A821B82E2
:100CF0001C8244E050E0BE016F5F7F4F80EE91E0C8
:100D00000E9412060F900F900F900F90DF91CF91DD
:100D10000895CF93DF93C0EED1E081E08A830E94F3
:100D20006D061A82DF91CF910C946D06CF92DF92FF
:100D3000EF92FF928FB7F894C090DC01D090DD0164
:100D4000E090DE01F090DF018FBF8091E40190918F
:100D5000E501A091E601B091E701A7019601281BEA
:100D6000390B4A0B5B0BDA01C901883C9105A105DF
:100D7000B10528F081E08093E3010E948906C092CA
:100D8000E401D092E501E092E601F092E701FF90E4
:100D9000EF90DF90CF90089581E08093E3010C9471
:100DA0008906BC01009761F0FC0101900020E9F781
:100DB0003197AF01481B590B88E591E00C940D0465
:100DC00008950E94C10587E491E00C94D106CF926A
:100DD000DF92EF92FF920F931F93CF93DF93CDB7E4
:100DE000DEB7A5970FB6F894DEBF0FBECDBF9C014E
:100DF000990F440B550B2AA33BA34CA35DA319A247
:100E00008E010F5D1F4F8AE0C82ED12CE12CF12CF2
:100E10006AA17BA18CA19DA1A70196010E940B0E46
:100E20008AA19BA1ACA1BDA12AA33BA34CA35DA316
:100E3000605DF80162938F010A97A105B10540F743
:100E4000CF010E94D10687E491E0A5960FB6F894F1
:100E5000DEBF0FBECDBFDF91CF911F910F91FF90ED
:100E6000EF90DF90CF900C94D1061F920F920FB6A7
:100E70000F9211242F933F934F935F936F937F9320
:100E80008F939F93AF93BF93EF93FF93E0911301E1
:100E9000F09114010995FF91EF91BF91AF919F914E
:100EA0008F917F916F915F914F913F912F910F9013
:100EB0000FBE0F901F9018951F920F920FB60F92B2
:100EC00011242F933F934F935F936F937F938F934F
:100ED0009F93AF93BF93EF93FF93E0911501F09130
:100EE00016010995FF91EF91BF91AF919F918F915D
:100EF0007F916F915F914F913F912F910F900FBE16
:100F00000F901F9018951F920F920FB60F921124F9
:100F10002F933F934F935F936F937F938F939F9301
:100F2000AF93BF93EF93FF93E0911701F0911801F6
:100F30000995FF91EF91BF91AF919F918F917F9113
:100F40006F915F914F913F912F910F900FBE0F9036
:100F50001F9018951F920F920FB60F9211242F9386
:100F60003F934F935F936F937F938F939F93AF9331
:100F7000BF93EF93FF93E0911901F0911A01099546
:100F8000FF91EF91BF91AF919F918F917F916F9161
:100F90005F914F913F912F910F900FBE0F901F9037
:100FA00018951F920F920FB60F9211242F933F9313
:100FB0004F935F936F937F938F939F93AF93BF9361
:100FC000EF93FF93E0911B01F0911C010995FF91B4
:100FD000EF91BF91AF919F918F917F916F915F91B1
:100FE0004F913F912F910F900FBE0F901F9018952A
:100FF0001F921FB61F9211242F933F938F939F939D
:10100000AF93BF938091DC019091DD01A091DE014F
:10101000B091DF013091C20123E0230F2D3750F54D
:101020000196A11DB11D2093C2018093DC01909314
:10103000DD01A093DE01B093DF018091BE019091AC
:10104000BF01A091C001B091C1010196A11DB11DC8
:101050008093BE019093BF01A093C001B093C101E2
:10106000BF91AF919F918F913F912F911F901FBE84
:101070001F90189526E8230F0296A11DB11DD3CF0E
:101080001F920F920FB60F921124CF92DF92EF9220
:10109000FF920F931F932F933F934F935F936F9301
:1010A0007F938F939F93AF93BF93EF93FF93CF93D0
:1010B000DF93CDB7DEB76C97DEBFCDBF1092E900EE
:1010C0008091E80083FF29C08E010B5E1F4F68E00E
:1010D000C8010E94450382EF8093E8008D89E02ECD
:1010E000D12E87FF39C09091E80090FFFCCF982F58
:1010F000907609F030C1EE892F89388D9F89F88C60
:10110000E11131C0803861F58091A9018093F1002F
:101110001092F1008EEF8093E8006C960FB6F89471
:10112000DEBF0FBECDBFDF91CF91FF91EF91BF9199
:10113000AF919F918F917F916F915F914F913F916F
:101140002F911F910F91FF90EF90DF90CF900F9014
:101150000FBE0F901F9018959EEF9093E800C7CF99
:101160001092F100D5CFE150E930A0F6F0E0EC5854
:10117000F04F0C942D0E8111CDCF2130310551F659
:101180008091A9018D7F8093A901C4CF8111C2CF25
:101190002130310509F0BECF8091A9018260F3CFE3
:1011A0008091E80080FFFCCF90689093E300B2CF7D
:1011B0000B8D1C8D22E01092E9001092AD0110926F
:1011C000AC01F2122EC01092AB011092AA010E9443
:1011D0002C051F8299E09983FA8291E09E8390EA20
:1011E00098879AEF99872091AC013091AD01275FE4
:1011F0003F4F3C832B838D831092E9001092AD0109
:101200001092AC011093AB010093AA0149E050E0A9
:10121000BE016F5F7F4F80E00E9451040E942C0549
:1012200079CF1093AB010093AA010E943103DC0136
:1012300012960D911C910115110531F4F1E0FF1288
:1012400014C06BE771E05AC0D801ED91FC910480A5
:10125000F581E02D6E2D7D2DC8010995009709F0CF
:101260003AC1F80100851185E6CFF3E0FF120EC008
:101270008F89882309F440C0823061F440E860E13E
:1012800085E991E00E94FC04811144CF81E28093C2
:10129000EB0043CF813029F440E867E08DE891E02E
:1012A000F1CF833099F70E943103DC011296ED9063
:1012B000FC908E010F5F1F4F6801E114F10469F487
:1012C000D8011C92F60101900020E9F73197BF0187
:1012D0006C197D0940E0C601D5CFD701ED91FC9195
:1012E0000680F781E02DB801C7010995080F111D8F
:1012F000F701E084F184E1CF67E771E0FB014491FD
:1013000050E080E80E94510405CF81E08093F10015
:1013100001CF837009F0BACFE1E0F1E081E021E094
:1013200036E39191992371F08093E9002093EB00CB
:10133000DF0111979C919093EC003093ED008F5F4B
:10134000873079F78EE78093EA001092EA008F8960
:101350008093B001DFCE8B8D9C8D1092E9001092AE
:10136000AD011092AC019093AB018093AA01898DDD
:10137000811197C08E899D89913A49F4813209F093
:1013800085CF47E050E06BE071E080E0BBCF913269
:1013900009F07CCF833269F48F89988DB0E0A0E0AA
:1013A0008093070190930801A0930901B0930A016B
:1013B000B1CE803209F438C0823209F0ABCE8F89C9
:1013C00080931201EEEFFFE7859194918B3F9C4D46
:1013D000C1F5EEEFFAE080910B0190910C01A09124
:1013E0000D01B0910E01803B9440A105B10561F55E
:1013F0008091120180FD28C0EE3F8AE0F80709F0D5
:101400003EC087E797E79183808380916000809357
:10141000A80188E19BE00FB6F894A895809360003E
:101420000FBE9093600076CE8091E80082FFFCCFE3
:1014300067E08BE091E00E9445038BEF8093E8002A
:1014400069CEE0E0F8E0C7CF808191818737974788
:1014500009F060CEA895809160008861809360005B
:101460008091A80180936000EE3F2AE0F207A1F08E
:101470008091FE0A9091FF0A918380834BCE8091E8
:101480000008909101088737980709F4BACF909324
:10149000FF0A8093FE0AB5CF1092FF0A1092FE0A4F
:1014A00039CE0E943103DC0112960D911C91011579
:1014B000110509F4EBCED801ED91FC910190F0817A
:1014C000E02D6E2D7D2DC8010995811123CEF801E7
:1014D00000851185ECCF181619060CF41BCED6CE5C
:1014E0001F921FB61F9211248F939F938091E1004A
:1014F0009091E100937F9093E10083FF0FC01092E1
:10150000E90091E09093EB001092EC0092E390934D
:10151000ED001092B00198E09093F00082FF22C09D
:1015200093E09093E9009091F200992319F09AE3E7
:101530009093E8009091AE01992341F09091AE0113
:1015400091509093AE01911101C05D9A9091B101BB
:10155000992341F09091B10191509093B101911173
:1015600001C0289A84FF17C08091E2008E7E8160BE
:101570008093E2008091E1008F7E8093E100809172
:10158000AF018E7E80618093AF019F918F911F90FC
:101590001FBE1F90189580FFF8CF8091E2008E7ECD
:1015A00080618093E2008091E1008E7E8093E10073
:1015B0008091AF018E7E8160E6CF00D000D000D058
:1015C0000F92CDB7DEB7789484B5826084BD84B5C0
:1015D000816084BD85B5826085BD85B5816085BD2E
:1015E00080916E00816080936E00109281008091E6
:1015F000810082608093810080918100816080936E
:1016000081008091800081608093800080919100B2
:10161000826080939100809191008160809391001D
:10162000809190008160809390008091C1008460DF
:101630008093C1008091C10082608093C10080913D
:10164000C10081608093C1008091C300816080935C
:10165000C3008091C00082608093C0008091C2006E
:1016600081608093C20080917A00846080937A00C8
:1016700080917A00826080937A0080917A00816004
:1016800080937A0080917A00806880937A0010922B
:10169000B0011092A9011092AF018091D700816032
:1016A0008093D70080EA8093D80089B5806189BD96
:1016B00089B5826089BD09B400FEFDCF61E070E0AC
:1016C00080E090E00E9403028091D8008F7C8061CE
:1016D0008093D8008091E000807F8093E00080912B
:1016E000E1008E7E8093E1008DE08093E200559AC8
:1016F000209A8FEF9FEF9093650180936401109281
:10170000E2010E946D060E94D30280E4782ECE0191
:101710000196682E592E6CE571E046E956E02CE8FA
:1017200031E08CEC96E0E0E0AE2EE0E0BE2E6B8384
:101730007C834D835E832F83232E382E492E88E5AC
:1017400091E00E94F602892B09F4FFC088E591E040
:101750000E949705182FE82E88E591E00E949705D2
:10176000F82E143409F062C086E691E00E94E1068A
:1017700081E691E00E94C10588E591E00E94E106C2
:101780008AE491E00E94C10588E491E00E94E106AC
:101790008EE391E00E94C10580E290E00E94E7069E
:1017A00084E391E00E94C10585E190E00E94E70694
:1017B00080E291E00E94C1058EE191E00E94E10685
:1017C00080E191E00E94C1058EE091E00E94E10677
:1017D00082E091E00E94C10580E091E00E94E10674
:1017E00084EF90E00E94C10581E090E00E94E7064E
:1017F00089EE90E00E94C10580E393E00E94330EE1
:10180000873309F0BBC001E313E0C8010E94330E27
:10181000682F8FEF860F8E3F08F49EC083EE90E016
:101820000E94E10688EE90E00E94E106ECE4EE12F0
:1018300085C0FF2DF870EF2EF3FC42C01F2D1071F4
:1018400061E0F0FE9EC086E00E944302F894809121
:10185000C20088608093C2008091C2008B7F809319
:10186000C20080E28093D2008091C100807F80938B
:10187000C1008091C1008F608093C1008091C3003E
:101880008C7F8093C300E3E0E093BF00FFEFF09311
:10189000D1001092BF001092BF001092BE00789449
:1018A000832D942D112311F08F81922D90931C0183
:1018B00080931B0180916A00806380936A00EE9A96
:1018C00080917A008078F5FE6BC0856080937A0005
:1018D00080917B00806880937B00F2FE63C060E0B3
:1018E0008FE00E944302F6FE66C060E08EE00E9438
:1018F000430204E610E00E94A20501501109D9F745
:1019000061E08AE0F1FE98C0EE2009F46CC00E940C
:10191000430260E08AE00E94720288E591E00E9442
:10192000F602892B09F450C060E08AE00E9472023E
:1019300060E08AE00E9443020E94D302A114B10435
:1019400009F4FDCE0E940000FACE6AE070E080E06B
:1019500090E00E940302F3CE6D3009F45FCF6A304D
:1019600009F45CCF88E591E00E941B030F5F1F4FD5
:10197000013483E0180709F048CF50CF84EE90E09F
:101980004FCF84E00E94430261E084E00E94720233
:101990008D819E81112309F489CF8B819C8186CF13
:1019A000876094CF61E08FE00E94430260E08FE0A7
:1019B0000E94720298CF61E08EE00E94430260E0D4
:1019C0008EE00E94720295CF73B80E94A2059A839E
:1019D000898342E050E0662D752D88E591E00E94F4
:1019E0000D0473B89ACF0E94430260E08AE00E941F
:1019F000720283E090E00E943B0E8C0188E591E04A
:101A00000E94F602892B21F0C8010E94D10E8CCFD2
:101A100073B80E94A205F801918380838091E3014D
:101A200082831092E30143E050E0B80188E591E041
:101A30000E940D0473B8E2CFEE2051F10E944302E0
:101A400060E08AE00E94720280E490E00E943B0E17
:101A50008C0173B86C01F0E4CF0ED11C780188E5DD
:101A600091E00E94F602892B79F60E94A205F70107
:101A7000819391937F01EC15FD0589F773B840E4DC
:101A800050E0B80188E591E00E940D0473B8E6CFFC
:101A90000E94430260E08AE00E9472028FE390E0BD
:101AA0000E943B0E8C0173B878016801FAE2CF0EF8
:101AB000D11C460188E591E00E94F602892B09F0CD
:101AC000A3CF0E94A205F701819391937F0180919A
:101AD000E301F60181936F011092E3018E149F04DC
:101AE00049F773B84FE350E0B80188E591E00E94F0
:101AF0000D04D9CFCF9310925B0110925A0188EE5A
:101B000093E0A0E0B0E080935C0190935D01A0932E
:101B10005E01B0935F0187E291E090935901809359
:101B200058018FEF9FEF90936501809364011092AD
:101B3000E20189E391E09093E1018093E0018091DB
:101B40005001811113C010924B0110924A018CEA8E
:101B500090E090934D0180934C018BE290E0909344
:101B60004F0180934E0181E0809350018091D40118
:101B700081112AC0C1E0C093C701C093C8018DEC98
:101B800091E09093CA018093C9011092CC01109208
:101B9000CB018FE391E09093C4018093C301109235
:101BA000CF011092CE011092D1011092D001C093BA
:101BB000D201C093D30181EC8093CD010E94310307
:101BC0000E94D205C093D401E091CE01F091CF01E3
:101BD0003097B1F48AE491E09093CF018093CE01E5
:101BE0008091D0019091D10120914E0130914F010F
:101BF000820F931F9093D1018093D001CF910895CC
:101C0000DF010190F081E02D3097D1F78AE491E077
:101C10008D939C93E5CFA1E21A2EAA1BBB1BFD015D
:101C20000DC0AA1FBB1FEE1FFF1FA217B307E407BB
:101C3000F50720F0A21BB30BE40BF50B661F771F13
:101C4000881F991F1A9469F76095709580959095F3
:101C50009B01AC01BD01CF010895EE0FFF1F059060
:101C6000F491E02D0994F999FECF92BD81BDF89AC7
:101C7000992780B508950F931F93CF93DF939C010D
:101C8000029710F422E030E0E091E801F091E901E0
:101C900090E080E0B0E0A0E0309791F4009709F484
:101CA00045C0821B930B84309105B8F58A819B81D6
:101CB0006115710569F1FB0193838283FE0111C0F7
:101CC000408151810281138142175307F0F042177E
:101CD000530799F4109761F012960C93129713968C
:101CE0001C933296CF01DF91CF911F910F910895F0
:101CF0000093E8011093E901F4CF009719F0481719
:101D0000590718F4CA01BD01EF01DF01F801C4CF82
:101D10009093E9018093E801D1CFFE01E80FF91F0C
:101D200021933193029799838883DCCF8091EA01D4
:101D30009091EB01892B41F480911F01909120013A
:101D40009093EB018093EA0180911D0190911E0117
:101D5000009741F48DB79EB7409121015091220127
:101D6000841B950B4091EA015091EB0148175907EC
:101D700008F0B8CF841B950B8217930708F4B2CFF5
:101D8000B9016E5F7F4F8617970708F4ABCF640FDA
:101D9000751F7093EB016093EA01FA01219331936F
:101DA000A1CFCF93DF939C010097E9F0FC0132971C
:101DB00013821282C091E801D091E901DE0190E026
:101DC00080E02097A1F480819181280F391F8091B4
:101DD000EA019091EB018217930709F067C0F09335
:101DE000EB01E093EA01DF91CF910895DA01AE179C
:101DF000BF0708F041C012964D915C911397CD0139
:101E00004115510599F7DC011396FC93EE93129757
:101E10004D915D91A40FB51FEA17FB0781F4208156
:101E200031812E5F3F4F240F351FDC0111963C930B
:101E30002E932281338113963C932E931297B0E018
:101E4000A0E08A819B810097B1F5FE01819191917B
:101E5000E80FF91F8091EA019091EB018E179F071F
:101E600011F6109759F51092E9011092E801D093FC
:101E7000EB01C093EA01B7CFB383A28340815181C4
:101E8000240F351FA217B30771F44E5F5F4F2D91DA
:101E90003C911197420F531F5183408312962D910D
:101EA0003C9133832283009709F0ADCFF093E90191
:101EB000E093E80198CFDE01EC01C3CF13961C92AA
:101EC0001E921297D4CFF894FFCFAC02B0028D02CD
:101ED000A402A802920292029202B302B902BD02C7
:101EE000C102C7029202CB02BB088A08C6088A0850
:0A1EF000D008D808460985098909C1
:101EFA0000C18081000000FFFFFFFF00E100000039
:101F0A00000000900190019001900190010000EC06
:101F1A00012000000000001B030D0463031003F6F8
:101F2A00029705870500000000120600000000ACB9
:0A1F3A00017804C30491010D0A00B0
:00000001FF
